{
  "_format": "hh-sol-artifact-1",
  "contractName": "GhostNetAgent",
  "sourceName": "contracts/GhostNetAgent.sol",
  "abi": [
    {
      "anonymous": false,
      "inputs": [
        {
          "indexed": true,
          "internalType": "bytes32",
          "name": "messageHash",
          "type": "bytes32"
        },
        {
          "indexed": false,
          "internalType": "string",
          "name": "action",
          "type": "string"
        },
        {
          "indexed": false,
          "internalType": "string",
          "name": "resource",
          "type": "string"
        },
        {
          "indexed": false,
          "internalType": "string",
          "name": "priority",
          "type": "string"
        },
        {
          "indexed": false,
          "internalType": "uint256",
          "name": "timestamp",
          "type": "uint256"
        }
      ],
      "name": "DecisionCreated",
      "type": "event"
    },
    {
      "inputs": [
        {
          "internalType": "bytes32",
          "name": "messageHash",
          "type": "bytes32"
        }
      ],
      "name": "getDecision",
      "outputs": [
        {
          "components": [
            {
              "internalType": "bytes32",
              "name": "messageHash",
              "type": "bytes32"
            },
            {
              "internalType": "string",
              "name": "action",
              "type": "string"
            },
            {
              "internalType": "string",
              "name": "resource",
              "type": "string"
            },
            {
              "internalType": "string",
              "name": "priority",
              "type": "string"
            },
            {
              "internalType": "uint256",
              "name": "timestamp",
              "type": "uint256"
            },
            {
              "internalType": "bool",
              "name": "isInitialized",
              "type": "bool"
            }
          ],
          "internalType": "struct GhostNetAgent.Decision",
          "name": "",
          "type": "tuple"
        }
      ],
      "stateMutability": "view",
      "type": "function"
    },
    {
      "inputs": [
        {
          "internalType": "bytes32",
          "name": "messageHash",
          "type": "bytes32"
        },
        {
          "internalType": "string",
          "name": "action",
          "type": "string"
        },
        {
          "internalType": "string",
          "name": "resource",
          "type": "string"
        },
        {
          "internalType": "string",
          "name": "priority",
          "type": "string"
        }
      ],
      "name": "storeDecision",
      "outputs": [],
      "stateMutability": "nonpayable",
      "type": "function"
    },
    {
      "inputs": [
        {
          "internalType": "bytes32",
          "name": "messageHash",
          "type": "bytes32"
        },
        {
          "internalType": "string",
          "name": "action",
          "type": "string"
        },
        {
          "internalType": "string",
          "name": "resource",
          "type": "string"
        },
        {
          "internalType": "string",
          "name": "priority",
          "type": "string"
        },
        {
          "internalType": "uint256",
          "name": "timestamp",
          "type": "uint256"
        }
      ],
      "name": "verifyDecision",
      "outputs": [
        {
          "internalType": "bool",
          "name": "",
          "type": "bool"
        }
      ],
      "stateMutability": "view",
      "type": "function"
    }
  ],
  "bytecode": "0x608060405234801561001057600080fd5b50611241806100206000396000f3fe608060405234801561001057600080fd5b50600436106100415760003560e01c806322d2905314610046578063d8c5789214610062578063f7a7914e14610092575b600080fd5b610060600480360381019061005b91906109a1565b6100c2565b005b61007c60048036038101906100779190610a5c565b610224565b6040516100899190610be2565b60405180910390f35b6100ac60048036038101906100a79190610c30565b610497565b6040516100b99190610d0e565b60405180910390f35b60008085815260200190815260200160002060050160009054906101000a900460ff1615610125576040517f08c379a000000000000000000000000000000000000000000000000000000000815260040161011c90610dac565b60405180910390fd5b6040518060c00160405280858152602001848152602001838152602001828152602001428152602001600115158152506000808681526020019081526020016000206000820151816000015560208201518160010190816101869190610fd8565b50604082015181600201908161019c9190610fd8565b5060608201518160030190816101b29190610fd8565b506080820151816004015560a08201518160050160006101000a81548160ff021916908315150217905550905050837fc45644ccc9c216c1a33f986f08f31b21241a3565fdcf549c7b591cf90e272e008484844260405161021694939291906110f2565b60405180910390a250505050565b61022c6107d6565b60008083815260200190815260200160002060050160009054906101000a900460ff1661028e576040517f08c379a000000000000000000000000000000000000000000000000000000000815260040161028590611198565b60405180910390fd5b6000808381526020019081526020016000206040518060c0016040529081600082015481526020016001820180546102c590610dfb565b80601f01602080910402602001604051908101604052809291908181526020018280546102f190610dfb565b801561033e5780601f106103135761010080835404028352916020019161033e565b820191906000526020600020905b81548152906001019060200180831161032157829003601f168201915b5050505050815260200160028201805461035790610dfb565b80601f016020809104026020016040519081016040528092919081815260200182805461038390610dfb565b80156103d05780601f106103a5576101008083540402835291602001916103d0565b820191906000526020600020905b8154815290600101906020018083116103b357829003601f168201915b505050505081526020016003820180546103e990610dfb565b80601f016020809104026020016040519081016040528092919081815260200182805461041590610dfb565b80156104625780601f1061043757610100808354040283529160200191610462565b820191906000526020600020905b81548152906001019060200180831161044557829003601f168201915b50505050508152602001600482015481526020016005820160009054906101000a900460ff1615151515815250509050919050565b6000806000808881526020019081526020016000206040518060c0016040529081600082015481526020016001820180546104d190610dfb565b80601f01602080910402602001604051908101604052809291908181526020018280546104fd90610dfb565b801561054a5780601f1061051f5761010080835404028352916020019161054a565b820191906000526020600020905b81548152906001019060200180831161052d57829003601f168201915b5050505050815260200160028201805461056390610dfb565b80601f016020809104026020016040519081016040528092919081815260200182805461058f90610dfb565b80156105dc5780601f106105b1576101008083540402835291602001916105dc565b820191906000526020600020905b8154815290600101906020018083116105bf57829003601f168201915b505050505081526020016003820180546105f590610dfb565b80601f016020809104026020016040519081016040528092919081815260200182805461062190610dfb565b801561066e5780601f106106435761010080835404028352916020019161066e565b820191906000526020600020905b81548152906001019060200180831161065157829003601f168201915b50505050508152602001600482015481526020016005820160009054906101000a900460ff16151515158152505090508060a001516106b15760009150506107cd565b856040516020016106c291906111f4565b6040516020818303038152906040528051906020012081602001516040516020016106ed91906111f4565b6040516020818303038152906040528051906020012014801561075f57508460405160200161071c91906111f4565b60405160208183030381529060405280519060200120816040015160405160200161074791906111f4565b60405160208183030381529060405280519060200120145b80156107ba57508360405160200161077791906111f4565b6040516020818303038152906040528051906020012081606001516040516020016107a291906111f4565b60405160208183030381529060405280519060200120145b80156107c95750828160800151145b9150505b95945050505050565b6040518060c0016040528060008019168152602001606081526020016060815260200160608152602001600081526020016000151581525090565b6000604051905090565b600080fd5b600080fd5b6000819050919050565b61083881610825565b811461084357600080fd5b50565b6000813590506108558161082f565b92915050565b600080fd5b600080fd5b6000601f19601f8301169050919050565b7f4e487b7100000000000000000000000000000000000000000000000000000000600052604160045260246000fd5b6108ae82610865565b810181811067ffffffffffffffff821117156108cd576108cc610876565b5b80604052505050565b60006108e0610811565b90506108ec82826108a5565b919050565b600067ffffffffffffffff82111561090c5761090b610876565b5b61091582610865565b9050602081019050919050565b82818337600083830152505050565b600061094461093f846108f1565b6108d6565b9050828152602081018484840111156109605761095f610860565b5b61096b848285610922565b509392505050565b600082601f8301126109885761098761085b565b5b8135610998848260208601610931565b91505092915050565b600080600080608085870312156109bb576109ba61081b565b5b60006109c987828801610846565b945050602085013567ffffffffffffffff8111156109ea576109e9610820565b5b6109f687828801610973565b935050604085013567ffffffffffffffff811115610a1757610a16610820565b5b610a2387828801610973565b925050606085013567ffffffffffffffff811115610a4457610a43610820565b5b610a5087828801610973565b91505092959194509250565b600060208284031215610a7257610a7161081b565b5b6000610a8084828501610846565b91505092915050565b610a9281610825565b82525050565b600081519050919050565b600082825260208201905092915050565b60005b83811015610ad2578082015181840152602081019050610ab7565b60008484015250505050565b6000610ae982610a98565b610af38185610aa3565b9350610b03818560208601610ab4565b610b0c81610865565b840191505092915050565b6000819050919050565b610b2a81610b17565b82525050565b60008115159050919050565b610b4581610b30565b82525050565b600060c083016000830151610b636000860182610a89565b5060208301518482036020860152610b7b8282610ade565b91505060408301518482036040860152610b958282610ade565b91505060608301518482036060860152610baf8282610ade565b9150506080830151610bc46080860182610b21565b5060a0830151610bd760a0860182610b3c565b508091505092915050565b60006020820190508181036000830152610bfc8184610b4b565b905092915050565b610c0d81610b17565b8114610c1857600080fd5b50565b600081359050610c2a81610c04565b92915050565b600080600080600060a08688031215610c4c57610c4b61081b565b5b6000610c5a88828901610846565b955050602086013567ffffffffffffffff811115610c7b57610c7a610820565b5b610c8788828901610973565b945050604086013567ffffffffffffffff811115610ca857610ca7610820565b5b610cb488828901610973565b935050606086013567ffffffffffffffff811115610cd557610cd4610820565b5b610ce188828901610973565b9250506080610cf288828901610c1b565b9150509295509295909350565b610d0881610b30565b82525050565b6000602082019050610d236000830184610cff565b92915050565b600082825260208201905092915050565b7f4465636973696f6e20616c72656164792065786973747320666f72207468697360008201527f206d657373616765206861736800000000000000000000000000000000000000602082015250565b6000610d96602d83610d29565b9150610da182610d3a565b604082019050919050565b60006020820190508181036000830152610dc581610d89565b9050919050565b7f4e487b7100000000000000000000000000000000000000000000000000000000600052602260045260246000fd5b60006002820490506001821680610e1357607f821691505b602082108103610e2657610e25610dcc565b5b50919050565b60008190508160005260206000209050919050565b60006020601f8301049050919050565b600082821b905092915050565b600060088302610e8e7fffffffffffffffffffffffffffffffffffffffffffffffffffffffffffffffff82610e51565b610e988683610e51565b95508019841693508086168417925050509392505050565b6000819050919050565b6000610ed5610ed0610ecb84610b17565b610eb0565b610b17565b9050919050565b6000819050919050565b610eef83610eba565b610f03610efb82610edc565b848454610e5e565b825550505050565b600090565b610f18610f0b565b610f23818484610ee6565b505050565b5b81811015610f4757610f3c600082610f10565b600181019050610f29565b5050565b601f821115610f8c57610f5d81610e2c565b610f6684610e41565b81016020851015610f75578190505b610f89610f8185610e41565b830182610f28565b50505b505050565b600082821c905092915050565b6000610faf60001984600802610f91565b1980831691505092915050565b6000610fc88383610f9e565b9150826002028217905092915050565b610fe182610a98565b67ffffffffffffffff811115610ffa57610ff9610876565b5b6110048254610dfb565b61100f828285610f4b565b600060209050601f8311600181146110425760008415611030578287015190505b61103a8582610fbc565b8655506110a2565b601f19841661105086610e2c565b60005b8281101561107857848901518255600182019150602085019450602081019050611053565b868310156110955784890151611091601f891682610f9e565b8355505b6001600288020188555050505b505050505050565b60006110b582610a98565b6110bf8185610d29565b93506110cf818560208601610ab4565b6110d881610865565b840191505092915050565b6110ec81610b17565b82525050565b6000608082019050818103600083015261110c81876110aa565b9050818103602083015261112081866110aa565b9050818103604083015261113481856110aa565b905061114360608301846110e3565b95945050505050565b7f4465636973696f6e20646f6573206e6f74206578697374000000000000000000600082015250565b6000611182601783610d29565b915061118d8261114c565b602082019050919050565b600060208201905081810360008301526111b181611175565b9050919050565b600081905092915050565b60006111ce82610a98565b6111d881856111b8565b93506111e8818560208601610ab4565b80840191505092915050565b600061120082846111c3565b91508190509291505056fea264697066735822122004aa0cfaf1feb25b83e5b8c1d32482662a18a90ecb024a43c52dccc53bde116964736f6c63430008140033",
  "linkReferences": {},
  "deployedLinkReferences": {}
}